{
	"_format": "hh-sol-artifact-1",
	"contractName": "SavingsGoals",
	"sourceName": "contracts/SavingsGoals.sol",
	"abi": [
		{
			"inputs": [
				{
					"internalType": "uint256",
					"name": "initialSupply",
					"type": "uint256"
				}
			],
			"stateMutability": "nonpayable",
			"type": "constructor"
		},
		{
			"inputs": [
				{
					"internalType": "address",
					"name": "spender",
					"type": "address"
				},
				{
					"internalType": "uint256",
					"name": "allowance",
					"type": "uint256"
				},
				{
					"internalType": "uint256",
					"name": "needed",
					"type": "uint256"
				}
			],
			"name": "ERC20InsufficientAllowance",
			"type": "error"
		},
		{
			"inputs": [
				{
					"internalType": "address",
					"name": "sender",
					"type": "address"
				},
				{
					"internalType": "uint256",
					"name": "balance",
					"type": "uint256"
				},
				{
					"internalType": "uint256",
					"name": "needed",
					"type": "uint256"
				}
			],
			"name": "ERC20InsufficientBalance",
			"type": "error"
		},
		{
			"inputs": [
				{
					"internalType": "address",
					"name": "approver",
					"type": "address"
				}
			],
			"name": "ERC20InvalidApprover",
			"type": "error"
		},
		{
			"inputs": [
				{
					"internalType": "address",
					"name": "receiver",
					"type": "address"
				}
			],
			"name": "ERC20InvalidReceiver",
			"type": "error"
		},
		{
			"inputs": [
				{
					"internalType": "address",
					"name": "sender",
					"type": "address"
				}
			],
			"name": "ERC20InvalidSender",
			"type": "error"
		},
		{
			"inputs": [
				{
					"internalType": "address",
					"name": "spender",
					"type": "address"
				}
			],
			"name": "ERC20InvalidSpender",
			"type": "error"
		},
		{
			"inputs": [
				{
					"internalType": "address",
					"name": "owner",
					"type": "address"
				}
			],
			"name": "OwnableInvalidOwner",
			"type": "error"
		},
		{
			"inputs": [
				{
					"internalType": "address",
					"name": "account",
					"type": "address"
				}
			],
			"name": "OwnableUnauthorizedAccount",
			"type": "error"
		},
		{
			"anonymous": false,
			"inputs": [
				{
					"indexed": true,
					"internalType": "address",
					"name": "owner",
					"type": "address"
				},
				{
					"indexed": true,
					"internalType": "address",
					"name": "spender",
					"type": "address"
				},
				{
					"indexed": false,
					"internalType": "uint256",
					"name": "value",
					"type": "uint256"
				}
			],
			"name": "Approval",
			"type": "event"
		},
		{
			"anonymous": false,
			"inputs": [
				{
					"indexed": true,
					"internalType": "uint256",
					"name": "goalId",
					"type": "uint256"
				},
				{
					"indexed": false,
					"internalType": "address",
					"name": "user",
					"type": "address"
				},
				{
					"indexed": false,
					"internalType": "uint256",
					"name": "amount",
					"type": "uint256"
				}
			],
			"name": "ContributionMade",
			"type": "event"
		},
		{
			"anonymous": false,
			"inputs": [
				{
					"indexed": true,
					"internalType": "uint256",
					"name": "goalId",
					"type": "uint256"
				},
				{
					"indexed": false,
					"internalType": "address",
					"name": "user",
					"type": "address"
				}
			],
			"name": "GoalAchieved",
			"type": "event"
		},
		{
			"anonymous": false,
			"inputs": [
				{
					"indexed": true,
					"internalType": "uint256",
					"name": "goalId",
					"type": "uint256"
				},
				{
					"indexed": false,
					"internalType": "address",
					"name": "user",
					"type": "address"
				},
				{
					"indexed": false,
					"internalType": "uint256",
					"name": "targetAmount",
					"type": "uint256"
				},
				{
					"indexed": false,
					"internalType": "uint256",
					"name": "deadline",
					"type": "uint256"
				}
			],
			"name": "GoalCreated",
			"type": "event"
		},
		{
			"anonymous": false,
			"inputs": [
				{
					"indexed": true,
					"internalType": "address",
					"name": "previousOwner",
					"type": "address"
				},
				{
					"indexed": true,
					"internalType": "address",
					"name": "newOwner",
					"type": "address"
				}
			],
			"name": "OwnershipTransferred",
			"type": "event"
		},
		{
			"anonymous": false,
			"inputs": [
				{
					"indexed": true,
					"internalType": "address",
					"name": "from",
					"type": "address"
				},
				{
					"indexed": true,
					"internalType": "address",
					"name": "to",
					"type": "address"
				},
				{
					"indexed": false,
					"internalType": "uint256",
					"name": "value",
					"type": "uint256"
				}
			],
			"name": "Transfer",
			"type": "event"
		},
		{
			"inputs": [
				{
					"internalType": "address",
					"name": "owner",
					"type": "address"
				},
				{
					"internalType": "address",
					"name": "spender",
					"type": "address"
				}
			],
			"name": "allowance",
			"outputs": [
				{
					"internalType": "uint256",
					"name": "",
					"type": "uint256"
				}
			],
			"stateMutability": "view",
			"type": "function"
		},
		{
			"inputs": [
				{
					"internalType": "address",
					"name": "spender",
					"type": "address"
				},
				{
					"internalType": "uint256",
					"name": "value",
					"type": "uint256"
				}
			],
			"name": "approve",
			"outputs": [
				{
					"internalType": "bool",
					"name": "",
					"type": "bool"
				}
			],
			"stateMutability": "nonpayable",
			"type": "function"
		},
		{
			"inputs": [
				{
					"internalType": "address",
					"name": "account",
					"type": "address"
				}
			],
			"name": "balanceOf",
			"outputs": [
				{
					"internalType": "uint256",
					"name": "",
					"type": "uint256"
				}
			],
			"stateMutability": "view",
			"type": "function"
		},
		{
			"inputs": [
				{
					"internalType": "uint256",
					"name": "_goalId",
					"type": "uint256"
				}
			],
			"name": "contribute",
			"outputs": [],
			"stateMutability": "payable",
			"type": "function"
		},
		{
			"inputs": [
				{
					"internalType": "uint256",
					"name": "_targetAmount",
					"type": "uint256"
				},
				{
					"internalType": "uint256",
					"name": "_deadline",
					"type": "uint256"
				}
			],
			"name": "createSavingsGoal",
			"outputs": [],
			"stateMutability": "nonpayable",
			"type": "function"
		},
		{
			"inputs": [],
			"name": "decimals",
			"outputs": [
				{
					"internalType": "uint8",
					"name": "",
					"type": "uint8"
				}
			],
			"stateMutability": "view",
			"type": "function"
		},
		{
			"inputs": [
				{
					"internalType": "uint256",
					"name": "_goalId",
					"type": "uint256"
				}
			],
			"name": "getProgress",
			"outputs": [
				{
					"internalType": "uint256",
					"name": "",
					"type": "uint256"
				},
				{
					"internalType": "uint256",
					"name": "",
					"type": "uint256"
				},
				{
					"internalType": "uint256",
					"name": "",
					"type": "uint256"
				},
				{
					"internalType": "uint256",
					"name": "",
					"type": "uint256"
				}
			],
			"stateMutability": "view",
			"type": "function"
		},
		{
			"inputs": [],
			"name": "goalCounter",
			"outputs": [
				{
					"internalType": "uint256",
					"name": "",
					"type": "uint256"
				}
			],
			"stateMutability": "view",
			"type": "function"
		},
		{
			"inputs": [
				{
					"internalType": "address",
					"name": "to",
					"type": "address"
				},
				{
					"internalType": "uint256",
					"name": "amount",
					"type": "uint256"
				}
			],
			"name": "mint",
			"outputs": [],
			"stateMutability": "nonpayable",
			"type": "function"
		},
		{
			"inputs": [],
			"name": "name",
			"outputs": [
				{
					"internalType": "string",
					"name": "",
					"type": "string"
				}
			],
			"stateMutability": "view",
			"type": "function"
		},
		{
			"inputs": [],
			"name": "owner",
			"outputs": [
				{
					"internalType": "address",
					"name": "",
					"type": "address"
				}
			],
			"stateMutability": "view",
			"type": "function"
		},
		{
			"inputs": [],
			"name": "renounceOwnership",
			"outputs": [],
			"stateMutability": "nonpayable",
			"type": "function"
		},
		{
			"inputs": [],
			"name": "symbol",
			"outputs": [
				{
					"internalType": "string",
					"name": "",
					"type": "string"
				}
			],
			"stateMutability": "view",
			"type": "function"
		},
		{
			"inputs": [],
			"name": "totalSupply",
			"outputs": [
				{
					"internalType": "uint256",
					"name": "",
					"type": "uint256"
				}
			],
			"stateMutability": "view",
			"type": "function"
		},
		{
			"inputs": [
				{
					"internalType": "address",
					"name": "to",
					"type": "address"
				},
				{
					"internalType": "uint256",
					"name": "value",
					"type": "uint256"
				}
			],
			"name": "transfer",
			"outputs": [
				{
					"internalType": "bool",
					"name": "",
					"type": "bool"
				}
			],
			"stateMutability": "nonpayable",
			"type": "function"
		},
		{
			"inputs": [
				{
					"internalType": "address",
					"name": "from",
					"type": "address"
				},
				{
					"internalType": "address",
					"name": "to",
					"type": "address"
				},
				{
					"internalType": "uint256",
					"name": "value",
					"type": "uint256"
				}
			],
			"name": "transferFrom",
			"outputs": [
				{
					"internalType": "bool",
					"name": "",
					"type": "bool"
				}
			],
			"stateMutability": "nonpayable",
			"type": "function"
		},
		{
			"inputs": [
				{
					"internalType": "address",
					"name": "newOwner",
					"type": "address"
				}
			],
			"name": "transferOwnership",
			"outputs": [],
			"stateMutability": "nonpayable",
			"type": "function"
		},
		{
			"inputs": [
				{
					"internalType": "uint256",
					"name": "",
					"type": "uint256"
				}
			],
			"name": "userGoals",
			"outputs": [
				{
					"internalType": "uint256",
					"name": "id",
					"type": "uint256"
				},
				{
					"internalType": "address",
					"name": "user",
					"type": "address"
				},
				{
					"internalType": "uint256",
					"name": "targetAmount",
					"type": "uint256"
				},
				{
					"internalType": "uint256",
					"name": "deadline",
					"type": "uint256"
				},
				{
					"internalType": "uint256",
					"name": "balance",
					"type": "uint256"
				}
			],
			"stateMutability": "view",
			"type": "function"
		}
	],
	"bytecode": "0x6080604052600160075534801561001557600080fd5b506040516127673803806127678339818101604052810190610037919061050c565b336040518060400160405280600781526020017f4d79546f6b656e000000000000000000000000000000000000000000000000008152506040518060400160405280600381526020017f4d544b000000000000000000000000000000000000000000000000000000000081525081600390816100b3919061077f565b5080600490816100c3919061077f565b505050600073ffffffffffffffffffffffffffffffffffffffff168173ffffffffffffffffffffffffffffffffffffffff16036101385760006040517f1e4fbdf700000000000000000000000000000000000000000000000000000000815260040161012f9190610892565b60405180910390fd5b6101478161015e60201b60201c565b50610158338261022460201b60201c565b50610971565b6000600560009054906101000a900473ffffffffffffffffffffffffffffffffffffffff16905081600560006101000a81548173ffffffffffffffffffffffffffffffffffffffff021916908373ffffffffffffffffffffffffffffffffffffffff1602179055508173ffffffffffffffffffffffffffffffffffffffff168173ffffffffffffffffffffffffffffffffffffffff167f8be0079c531659141344cd1fd0a4f28419497f9722a3daafe3b4186f6b6457e060405160405180910390a35050565b600073ffffffffffffffffffffffffffffffffffffffff168273ffffffffffffffffffffffffffffffffffffffff16036102965760006040517fec442f0500000000000000000000000000000000000000000000000000000000815260040161028d9190610892565b60405180910390fd5b6102a8600083836102ac60201b60201c565b5050565b600073ffffffffffffffffffffffffffffffffffffffff168373ffffffffffffffffffffffffffffffffffffffff16036102fe5780600260008282546102f291906108dc565b925050819055506103d1565b60008060008573ffffffffffffffffffffffffffffffffffffffff1673ffffffffffffffffffffffffffffffffffffffff1681526020019081526020016000205490508181101561038a578381836040517fe450d38c0000000000000000000000000000000000000000000000000000000081526004016103819392919061091f565b60405180910390fd5b8181036000808673ffffffffffffffffffffffffffffffffffffffff1673ffffffffffffffffffffffffffffffffffffffff16815260200190815260200160002081905550505b600073ffffffffffffffffffffffffffffffffffffffff168273ffffffffffffffffffffffffffffffffffffffff160361041a5780600260008282540392505081905550610467565b806000808473ffffffffffffffffffffffffffffffffffffffff1673ffffffffffffffffffffffffffffffffffffffff168152602001908152602001600020600082825401925050819055505b8173ffffffffffffffffffffffffffffffffffffffff168373ffffffffffffffffffffffffffffffffffffffff167fddf252ad1be2c89b69c2b068fc378daa952ba7f163c4a11628f55a4df523b3ef836040516104c49190610956565b60405180910390a3505050565b600080fd5b6000819050919050565b6104e9816104d6565b81146104f457600080fd5b50565b600081519050610506816104e0565b92915050565b600060208284031215610522576105216104d1565b5b6000610530848285016104f7565b91505092915050565b600081519050919050565b7f4e487b7100000000000000000000000000000000000000000000000000000000600052604160045260246000fd5b7f4e487b7100000000000000000000000000000000000000000000000000000000600052602260045260246000fd5b600060028204905060018216806105ba57607f821691505b6020821081036105cd576105cc610573565b5b50919050565b60008190508160005260206000209050919050565b60006020601f8301049050919050565b600082821b905092915050565b6000600883026106357fffffffffffffffffffffffffffffffffffffffffffffffffffffffffffffffff826105f8565b61063f86836105f8565b95508019841693508086168417925050509392505050565b6000819050919050565b600061067c610677610672846104d6565b610657565b6104d6565b9050919050565b6000819050919050565b61069683610661565b6106aa6106a282610683565b848454610605565b825550505050565b600090565b6106bf6106b2565b6106ca81848461068d565b505050565b5b818110156106ee576106e36000826106b7565b6001810190506106d0565b5050565b601f82111561073357610704816105d3565b61070d846105e8565b8101602085101561071c578190505b610730610728856105e8565b8301826106cf565b50505b505050565b600082821c905092915050565b600061075660001984600802610738565b1980831691505092915050565b600061076f8383610745565b9150826002028217905092915050565b61078882610539565b67ffffffffffffffff8111156107a1576107a0610544565b5b6107ab82546105a2565b6107b68282856106f2565b600060209050601f8311600181146107e957600084156107d7578287015190505b6107e18582610763565b865550610849565b601f1984166107f7866105d3565b60005b8281101561081f578489015182556001820191506020850194506020810190506107fa565b8683101561083c5784890151610838601f891682610745565b8355505b6001600288020188555050505b505050505050565b600073ffffffffffffffffffffffffffffffffffffffff82169050919050565b600061087c82610851565b9050919050565b61088c81610871565b82525050565b60006020820190506108a76000830184610883565b92915050565b7f4e487b7100000000000000000000000000000000000000000000000000000000600052601160045260246000fd5b60006108e7826104d6565b91506108f2836104d6565b925082820190508082111561090a576109096108ad565b5b92915050565b610919816104d6565b82525050565b60006060820190506109346000830186610883565b6109416020830185610910565b61094e6040830184610910565b949350505050565b600060208201905061096b6000830184610910565b92915050565b611de7806109806000396000f3fe6080604052600436106101095760003560e01c8063715018a611610095578063c1cbbca711610064578063c1cbbca714610383578063dd62ed3e1461039f578063e11efa06146103dc578063f2fde38b1461041c578063f9e9ad391461044557610109565b8063715018a6146102d95780638da5cb5b146102f057806395d89b411461031b578063a9059cbb1461034657610109565b80632b5d6955116100dc5780632b5d6955146101de578063313ce5671461021f57806331471a241461024a57806340c10f191461027357806370a082311461029c57610109565b806306fdde031461010e578063095ea7b31461013957806318160ddd1461017657806323b872dd146101a1575b600080fd5b34801561011a57600080fd5b50610123610470565b6040516101309190611549565b60405180910390f35b34801561014557600080fd5b50610160600480360381019061015b9190611604565b610502565b60405161016d919061165f565b60405180910390f35b34801561018257600080fd5b5061018b610525565b6040516101989190611689565b60405180910390f35b3480156101ad57600080fd5b506101c860048036038101906101c391906116a4565b61052f565b6040516101d5919061165f565b60405180910390f35b3480156101ea57600080fd5b50610205600480360381019061020091906116f7565b61055e565b604051610216959493929190611733565b60405180910390f35b34801561022b57600080fd5b506102346105b4565b60405161024191906117a2565b60405180910390f35b34801561025657600080fd5b50610271600480360381019061026c91906117bd565b6105bd565b005b34801561027f57600080fd5b5061029a60048036038101906102959190611604565b610789565b005b3480156102a857600080fd5b506102c360048036038101906102be91906117fd565b61079f565b6040516102d09190611689565b60405180910390f35b3480156102e557600080fd5b506102ee6107e7565b005b3480156102fc57600080fd5b506103056107fb565b604051610312919061182a565b60405180910390f35b34801561032757600080fd5b50610330610825565b60405161033d9190611549565b60405180910390f35b34801561035257600080fd5b5061036d60048036038101906103689190611604565b6108b7565b60405161037a919061165f565b60405180910390f35b61039d600480360381019061039891906116f7565b6108da565b005b3480156103ab57600080fd5b506103c660048036038101906103c19190611845565b610aa7565b6040516103d39190611689565b60405180910390f35b3480156103e857600080fd5b5061040360048036038101906103fe91906116f7565b610b2e565b6040516104139493929190611885565b60405180910390f35b34801561042857600080fd5b50610443600480360381019061043e91906117fd565b610bd4565b005b34801561045157600080fd5b5061045a610c5a565b6040516104679190611689565b60405180910390f35b60606003805461047f906118f9565b80601f01602080910402602001604051908101604052809291908181526020018280546104ab906118f9565b80156104f85780601f106104cd576101008083540402835291602001916104f8565b820191906000526020600020905b8154815290600101906020018083116104db57829003601f168201915b5050505050905090565b60008061050d610c60565b905061051a818585610c68565b600191505092915050565b6000600254905090565b60008061053a610c60565b9050610547858285610c7a565b610552858585610d0e565b60019150509392505050565b60066020528060005260406000206000915090508060000154908060010160009054906101000a900473ffffffffffffffffffffffffffffffffffffffff16908060020154908060030154908060040154905085565b60006012905090565b60008211610600576040517f08c379a00000000000000000000000000000000000000000000000000000000081526004016105f79061199c565b60405180910390fd5b428111610642576040517f08c379a000000000000000000000000000000000000000000000000000000000815260040161063990611a08565b60405180910390fd5b60006007600081548092919061065790611a57565b91905055905060006040518060a001604052808381526020013373ffffffffffffffffffffffffffffffffffffffff1681526020018581526020018481526020016000815250905080600660008481526020019081526020016000206000820151816000015560208201518160010160006101000a81548173ffffffffffffffffffffffffffffffffffffffff021916908373ffffffffffffffffffffffffffffffffffffffff1602179055506040820151816002015560608201518160030155608082015181600401559050506107476040518060600160405280602e8152602001611d37602e913983610e02565b817f1d0971e57544a0b964af345a6a979100dad95632fcb8537247ad1c56267fd6fe33868660405161077b93929190611a9f565b60405180910390a250505050565b610791610e9e565b61079b8282610f25565b5050565b60008060008373ffffffffffffffffffffffffffffffffffffffff1673ffffffffffffffffffffffffffffffffffffffff168152602001908152602001600020549050919050565b6107ef610e9e565b6107f96000610fa7565b565b6000600560009054906101000a900473ffffffffffffffffffffffffffffffffffffffff16905090565b606060048054610834906118f9565b80601f0160208091040260200160405190810160405280929190818152602001828054610860906118f9565b80156108ad5780601f10610882576101008083540402835291602001916108ad565b820191906000526020600020905b81548152906001019060200180831161089057829003601f168201915b5050505050905090565b6000806108c2610c60565b90506108cf818585610d0e565b600191505092915050565b6108fc604051806060016040528060278152602001611d656027913982610e02565b600060066000838152602001908152602001600020905060008211610956576040517f08c379a000000000000000000000000000000000000000000000000000000000815260040161094d90611b22565b60405180910390fd5b806003015442111561099d576040517f08c379a000000000000000000000000000000000000000000000000000000000815260040161099490611b8e565b60405180910390fd5b600034116109e0576040517f08c379a00000000000000000000000000000000000000000000000000000000081526004016109d790611c20565b60405180910390fd5b348160040160008282546109f49190611c40565b92505081905550610a216040518060600160405280603a8152602001611cfd603a91398260040154610e02565b817f0a4a91237423e0a1766a761c7cb029311d8b95d6b1b81db1b949a70c98b4e08e3334604051610a53929190611c74565b60405180910390a28060020154816004015410610aa357817fbf269a8bedc5897bb1516fbcc1e6362acdcdf49419c8353467aaf227b09adefb33604051610a9a919061182a565b60405180910390a25b5050565b6000600160008473ffffffffffffffffffffffffffffffffffffffff1673ffffffffffffffffffffffffffffffffffffffff16815260200190815260200160002060008373ffffffffffffffffffffffffffffffffffffffff1673ffffffffffffffffffffffffffffffffffffffff16815260200190815260200160002054905092915050565b600080600080610b56604051806060016040528060268152602001611d8c6026913986610e02565b600060066000878152602001908152602001600020905060008611610bb0576040517f08c379a0000000000000000000000000000000000000000000000000000000008152600401610ba790611b22565b60405180910390fd5b80600201548160040154826003015483600001549450945094509450509193509193565b610bdc610e9e565b600073ffffffffffffffffffffffffffffffffffffffff168173ffffffffffffffffffffffffffffffffffffffff1603610c4e5760006040517f1e4fbdf7000000000000000000000000000000000000000000000000000000008152600401610c45919061182a565b60405180910390fd5b610c5781610fa7565b50565b60075481565b600033905090565b610c75838383600161106d565b505050565b6000610c868484610aa7565b90507fffffffffffffffffffffffffffffffffffffffffffffffffffffffffffffffff8114610d085781811015610cf8578281836040517ffb8f41b2000000000000000000000000000000000000000000000000000000008152600401610cef93929190611a9f565b60405180910390fd5b610d078484848403600061106d565b5b50505050565b600073ffffffffffffffffffffffffffffffffffffffff168373ffffffffffffffffffffffffffffffffffffffff1603610d805760006040517f96c6fd1e000000000000000000000000000000000000000000000000000000008152600401610d77919061182a565b60405180910390fd5b600073ffffffffffffffffffffffffffffffffffffffff168273ffffffffffffffffffffffffffffffffffffffff1603610df25760006040517fec442f05000000000000000000000000000000000000000000000000000000008152600401610de9919061182a565b60405180910390fd5b610dfd838383611244565b505050565b610e9a8282604051602401610e18929190611c9d565b6040516020818303038152906040527fb60e72cc000000000000000000000000000000000000000000000000000000007bffffffffffffffffffffffffffffffffffffffffffffffffffffffff19166020820180517bffffffffffffffffffffffffffffffffffffffffffffffffffffffff8381831617835250505050611469565b5050565b610ea6610c60565b73ffffffffffffffffffffffffffffffffffffffff16610ec46107fb565b73ffffffffffffffffffffffffffffffffffffffff1614610f2357610ee7610c60565b6040517f118cdaa7000000000000000000000000000000000000000000000000000000008152600401610f1a919061182a565b60405180910390fd5b565b600073ffffffffffffffffffffffffffffffffffffffff168273ffffffffffffffffffffffffffffffffffffffff1603610f975760006040517fec442f05000000000000000000000000000000000000000000000000000000008152600401610f8e919061182a565b60405180910390fd5b610fa360008383611244565b5050565b6000600560009054906101000a900473ffffffffffffffffffffffffffffffffffffffff16905081600560006101000a81548173ffffffffffffffffffffffffffffffffffffffff021916908373ffffffffffffffffffffffffffffffffffffffff1602179055508173ffffffffffffffffffffffffffffffffffffffff168173ffffffffffffffffffffffffffffffffffffffff167f8be0079c531659141344cd1fd0a4f28419497f9722a3daafe3b4186f6b6457e060405160405180910390a35050565b600073ffffffffffffffffffffffffffffffffffffffff168473ffffffffffffffffffffffffffffffffffffffff16036110df5760006040517fe602df050000000000000000000000000000000000000000000000000000000081526004016110d6919061182a565b60405180910390fd5b600073ffffffffffffffffffffffffffffffffffffffff168373ffffffffffffffffffffffffffffffffffffffff16036111515760006040517f94280d62000000000000000000000000000000000000000000000000000000008152600401611148919061182a565b60405180910390fd5b81600160008673ffffffffffffffffffffffffffffffffffffffff1673ffffffffffffffffffffffffffffffffffffffff16815260200190815260200160002060008573ffffffffffffffffffffffffffffffffffffffff1673ffffffffffffffffffffffffffffffffffffffff16815260200190815260200160002081905550801561123e578273ffffffffffffffffffffffffffffffffffffffff168473ffffffffffffffffffffffffffffffffffffffff167f8c5be1e5ebec7d5bd14f71427d1e84f3dd0314c0f7b2291e5b200ac8c7c3b925846040516112359190611689565b60405180910390a35b50505050565b600073ffffffffffffffffffffffffffffffffffffffff168373ffffffffffffffffffffffffffffffffffffffff160361129657806002600082825461128a9190611c40565b92505081905550611369565b60008060008573ffffffffffffffffffffffffffffffffffffffff1673ffffffffffffffffffffffffffffffffffffffff16815260200190815260200160002054905081811015611322578381836040517fe450d38c00000000000000000000000000000000000000000000000000000000815260040161131993929190611a9f565b60405180910390fd5b8181036000808673ffffffffffffffffffffffffffffffffffffffff1673ffffffffffffffffffffffffffffffffffffffff16815260200190815260200160002081905550505b600073ffffffffffffffffffffffffffffffffffffffff168273ffffffffffffffffffffffffffffffffffffffff16036113b257806002600082825403925050819055506113ff565b806000808473ffffffffffffffffffffffffffffffffffffffff1673ffffffffffffffffffffffffffffffffffffffff168152602001908152602001600020600082825401925050819055505b8173ffffffffffffffffffffffffffffffffffffffff168373ffffffffffffffffffffffffffffffffffffffff167fddf252ad1be2c89b69c2b068fc378daa952ba7f163c4a11628f55a4df523b3ef8360405161145c9190611689565b60405180910390a3505050565b611480816114786114836114a4565b63ffffffff16565b50565b60006a636f6e736f6c652e6c6f679050600080835160208501845afa505050565b6114af819050919050565b6114b7611ccd565b565b600081519050919050565b600082825260208201905092915050565b60005b838110156114f35780820151818401526020810190506114d8565b60008484015250505050565b6000601f19601f8301169050919050565b600061151b826114b9565b61152581856114c4565b93506115358185602086016114d5565b61153e816114ff565b840191505092915050565b600060208201905081810360008301526115638184611510565b905092915050565b600080fd5b600073ffffffffffffffffffffffffffffffffffffffff82169050919050565b600061159b82611570565b9050919050565b6115ab81611590565b81146115b657600080fd5b50565b6000813590506115c8816115a2565b92915050565b6000819050919050565b6115e1816115ce565b81146115ec57600080fd5b50565b6000813590506115fe816115d8565b92915050565b6000806040838503121561161b5761161a61156b565b5b6000611629858286016115b9565b925050602061163a858286016115ef565b9150509250929050565b60008115159050919050565b61165981611644565b82525050565b60006020820190506116746000830184611650565b92915050565b611683816115ce565b82525050565b600060208201905061169e600083018461167a565b92915050565b6000806000606084860312156116bd576116bc61156b565b5b60006116cb868287016115b9565b93505060206116dc868287016115b9565b92505060406116ed868287016115ef565b9150509250925092565b60006020828403121561170d5761170c61156b565b5b600061171b848285016115ef565b91505092915050565b61172d81611590565b82525050565b600060a082019050611748600083018861167a565b6117556020830187611724565b611762604083018661167a565b61176f606083018561167a565b61177c608083018461167a565b9695505050505050565b600060ff82169050919050565b61179c81611786565b82525050565b60006020820190506117b76000830184611793565b92915050565b600080604083850312156117d4576117d361156b565b5b60006117e2858286016115ef565b92505060206117f3858286016115ef565b9150509250929050565b6000602082840312156118135761181261156b565b5b6000611821848285016115b9565b91505092915050565b600060208201905061183f6000830184611724565b92915050565b6000806040838503121561185c5761185b61156b565b5b600061186a858286016115b9565b925050602061187b858286016115b9565b9150509250929050565b600060808201905061189a600083018761167a565b6118a7602083018661167a565b6118b4604083018561167a565b6118c1606083018461167a565b95945050505050565b7f4e487b7100000000000000000000000000000000000000000000000000000000600052602260045260246000fd5b6000600282049050600182168061191157607f821691505b602082108103611924576119236118ca565b5b50919050565b7f54617267657420616d6f756e74206d757374206265206772656174657220746860008201527f616e203000000000000000000000000000000000000000000000000000000000602082015250565b60006119866024836114c4565b91506119918261192a565b604082019050919050565b600060208201905081810360008301526119b581611979565b9050919050565b7f446561646c696e65206d75737420626520696e20746865206675747572650000600082015250565b60006119f2601e836114c4565b91506119fd826119bc565b602082019050919050565b60006020820190508181036000830152611a21816119e5565b9050919050565b7f4e487b7100000000000000000000000000000000000000000000000000000000600052601160045260246000fd5b6000611a62826115ce565b91507fffffffffffffffffffffffffffffffffffffffffffffffffffffffffffffffff8203611a9457611a93611a28565b5b600182019050919050565b6000606082019050611ab46000830186611724565b611ac1602083018561167a565b611ace604083018461167a565b949350505050565b7f496e76616c696420676f616c2049440000000000000000000000000000000000600082015250565b6000611b0c600f836114c4565b9150611b1782611ad6565b602082019050919050565b60006020820190508181036000830152611b3b81611aff565b9050919050565b7f476f616c20646561646c696e6520686173207061737365640000000000000000600082015250565b6000611b786018836114c4565b9150611b8382611b42565b602082019050919050565b60006020820190508181036000830152611ba781611b6b565b9050919050565b7f436f6e747269627574696f6e206d75737420626520677265617465722074686160008201527f6e20300000000000000000000000000000000000000000000000000000000000602082015250565b6000611c0a6023836114c4565b9150611c1582611bae565b604082019050919050565b60006020820190508181036000830152611c3981611bfd565b9050919050565b6000611c4b826115ce565b9150611c56836115ce565b9250828201905080821115611c6e57611c6d611a28565b5b92915050565b6000604082019050611c896000830185611724565b611c96602083018461167a565b9392505050565b60006040820190508181036000830152611cb78185611510565b9050611cc6602083018461167a565b9392505050565b7f4e487b7100000000000000000000000000000000000000000000000000000000600052605160045260246000fdfe436f6e747269627574696f6e206d61646520616e6420726561647920746f20656d69742e20636f6e747269627574696f6e2062616c616e63653d476f616c204f626a656374206372656174656420616e6420726561647920746f20656d69743a20676f616449643d436f6e747269627574696f6e206d6574686f642063616c6c6564207769746820676f616c49643d67657450726f6772657373206d6574686f642063616c6c6564207769746820676f616c49643da2646970667358221220ac5f6eddb8999e694ec162661dcb335b744f8d6eb83c7690a5e0b2452bf013d264736f6c634300081b0033",
	"linkReferences": {},
	"deployedLinkReferences": {}
}